:020000040800F2
:1000000000500020B90D0008B3030008B503000834
:10001000B7030008B9030008BB0300080000000094
:10002000000000000000000000000000BD03000808
:10003000BF03000800000000C1030008C30300085C
:10004000010E0008010E0008010E0008010E000854
:10005000010E0008010E0008010E0008010E000844
:10006000010E0008010E0008010E0008010E000834
:10007000010E0008010E0008010E0008010E000824
:10008000010E0008010E0008010E0008010E000814
:10009000010E0008010E0008010E0008010E000804
:1000A000010E0008010E0008010E0008010E0008F4
:1000B000010E0008010E0008010E0008010E0008E4
:1000C000010E0008010E0008010E0008010E0008D4
:1000D000010E0008010E0008010E0008010E0008C4
:1000E000010E0008010E0008010E000800000000CB
:1000F0000000000000000000000000000000000000
:0C01000000000000000000005FF808F1A3
:10010C000348044B834202D0034B03B1184770479A
:10011C000C0000200C000020000000000548064BDD
:10012C001B1AD90F01EBA301491002D0034B03B1E9
:10013C00184770470C0000200C0000200000000045
:10014C0010B5064C237843B9FFF7DAFF044B13B113
:10015C000448AFF300800123237010BD0C00002075
:10016C0000000000040E000808B5044B1BB1044944
:10017C000448AFF30080BDE80840CFE70000000062
:10018C0010000020040E0008830730B546D08446CA
:10019C00841805E0634603F8011B9D0703D09C46B9
:1001AC00A445F7D130BD013A0244A2EB0C02032A5C
:1001BC0029D9CCB204EB04240F2A04EB04442FD924
:1001CC00A2F1100C2CF00F0C03F11005AC44C3E998
:1001DC000044C3E9024410336345F8D112F00C0F0C
:1001EC0002F00F0E18D01A462EF0030C9C44AEF100
:1001FC00040542F8044B6245FBD125F0030404339B
:10020C000EF003022344002ACCD0C9B21A4403F8DE
:10021C00011B9342FBD130BD7246F4E70346C6E79F
:10022C009646E0E770B50F4B0F4DAB42A3EB0506BE
:10023C0007D00024B61055F8043B01349847A64269
:10024C00F9D800F0D9FD094D094B5E1BAB424FEAC2
:10025C00A60606D0002455F8043B01349847A64264
:10026C00F9D870BD400E0008400E0008400E000882
:10027C00440E000870B586B002AD002402940394BD
:10028C00049405940E4B9A6942F004029A619B699E
:10029C0003F004030193019B0A4E22460E213046C3
:1002AC0000F004FD0E230293012303930494022314
:1002BC0005932946304600F0EFFB06B070BD00BF39
:1002CC00001002400008014008B5194B1A680132B1
:1002DC001A6018490A6801320A6017490A68013223
:1002EC000A601A6841F287339A4209D8114B1B688D
:1002FC00B3F5FA7F0CD2104B1B68312B10D808BD0C
:10030C0002210E4800F0D8FC094B00221A60EDE7E0
:10031C0004210A4800F0D0FC064B00221A60EAE7E0
:10032C000821064800F0C8FC034B00221A60E6E7DF
:10033C00300000202C000020280000200008014084
:10034C0072B6FEE710B590B006AC2822002120460C
:10035C00FFF71AFF00230193029303930493059371
:10036C000223069301230A9310230B93204600F0DB
:10037C00ABF860B90F230193002102910391049112
:10038C00059101A800F0D2FA18B910B010BDFFF712
:10039C00D7FFFFF7D5FF08B500F05CF8FFF7D2FFE9
:1003AC00FFF768FFFEE7FEE7FEE7FEE7FEE7FEE786
:1003BC0070477047704708B500F05EF800F0F0FC2D
:1003CC0008BD000082B00E4B9A6942F001029A619E
:1003DC009A6902F001020092009ADA6942F08052A6
:1003EC00DA61DB6903F080530193019B054A536882
:1003FC0023F0E06343F08063536002B0704700BFAA
:10040C00001002400000014010B504460E4B1A7853
:10041C004FF47A73B3FBF2F30C4A1068B0FBF3F0B1
:10042C0000F0AAFC68B90F2C01D901200AE00022C7
:10043C0021464FF0FF3000F08FFC054B1C60002074
:10044C0000E0012010BD00BF0000002008000020CB
:10045C000400002008B5074A136843F0100313602A
:10046C00032000F067FC0F20FFF7CEFFFFF7AAFF79
:10047C00002008BD00200240034A1168034B1B7882
:10048C000B441360704700BF3400002000000020B4
:10049C00014B1868704700BF3400002082B0084B35
:1004AC001B68084AA2FB03235B0A00FB03F30193BE
:1004BC0000BF019B5A1E0192002BF9D102B070476C
:1004CC0008000020D34D6210002800F0F18170B5B7
:1004DC0082B00446036813F0010F2CD0994B5B6873
:1004EC0003F00C03042B1DD0964B5B6803F00C033C
:1004FC00082B12D06368B3F5803F41D0002B55D147
:10050C0003F1804303F504331A6822F480321A6035
:10051C001A6822F480221A6037E08A4B5B6813F465
:10052C00803FE7D0874B1B6813F4003F03D0636810
:10053C00002B00F0BF81236813F0020F75D0814BA4
:10054C005B6813F00C0F5FD07E4B5B6803F00C0301
:10055C00082B54D02369002B00F08A807A4B01229F
:10056C001A60FFF795FF0546764B1B6813F0020FD8
:10057C0075D1FFF78DFF401B0228F5D903209EE1B2
:10058C00704A136843F480331360636843B3FFF716
:10059C007FFF05466B4B1B6813F4003FCBD1FFF775
:1005AC0077FF401B6428F5D9032088E1B3F5A02F11
:1005BC0009D0644B1A6822F480321A601A6822F44B
:1005CC0080221A60E1E703F18043A3F53C331A68FB
:1005DC0042F480221A601A6842F480321A60D4E71E
:1005EC00FFF756FF0546574B1B6813F4003FA2D08C
:1005FC00FFF74EFF401B6428F5D903205FE1514BF8
:10060C005B6813F4803FA5D14E4B1B6813F0020FAF
:10061C0003D02369012B40F04F814A4A136823F021
:10062C00F803616943EAC1031360236813F0080FF0
:10063C0033D0A369002B5CD0434B0122C3F8802438
:10064C00FFF726FF05463F4B5B6A13F0020F21D1E3
:10065C00FFF71EFF401B0228F5D903202FE1394A72
:10066C00136823F0F803616943EAC1031360DCE704
:10067C00354B00221A60FFF70BFF0546314B1B6808
:10068C0013F0020FD1D0FFF703FF401B0228F5D95E
:10069C00032014E10120FFF701FF236813F0040F7E
:1006AC0000F09680274BDB6913F0805F34D1254B2B
:1006BC00DA6942F08052DA61DB6903F0805301930E
:1006CC00019B0125214B1B6813F4807F26D0E36826
:1006DC00012B3DD0002B53D103F1804303F50433A0
:1006EC001A6A22F001021A621A6A22F004021A62D1
:1006FC0033E0154B0022C3F88024FFF7C9FE0546F2
:10070C00104B5B6A13F0020FC7D0FFF7C1FE401B02
:10071C000228F5D90320D2E00025D3E70B4A136851
:10072C0043F480731360FFF7B3FE0646074B1B6858
:10073C0013F4807FCBD1FFF7ABFE801B6428F5D977
:10074C000320BCE000100240000042420070004058
:10075C005F4A136A43F001031362E36833B3FFF794
:10076C0097FE06465A4B1B6A13F0020F2FD1FFF768
:10077C008FFE801B41F288339842F3D903209EE010
:10078C00052B09D0524B1A6A22F001021A621A6A1E
:10079C0022F004021A62E0E74D4B1A6A42F004029E
:1007AC001A621A6A42F001021A62D6E7FFF770FE6B
:1007BC000646474B1B6A13F0020F08D0FFF768FE82
:1007CC00801B41F288339842F3D9032077E0E5B9D6
:1007DC00E369002B72D03E4A526802F00C02082AE0
:1007EC0056D0022B17D03B4B00221A66FFF750FE57
:1007FC000446374B1B6813F0007F47D0FFF748FEC9
:10080C00001B0228F5D9032059E0314AD36923F0A3
:10081C008053D361DCE72F4B00221A66FFF738FEBA
:10082C0005462B4B1B6813F0007F06D0FFF730FEFC
:10083C00401B0228F5D9032041E0236AB3F5803F21
:10084C001AD023494B6823F47413226A606A02435A
:10085C0013434B601F4B01221A66FFF719FE044627
:10086C001B4B1B6813F0007F0ED1FFF711FE001B12
:10087C000228F5D9032022E0154A536823F40033EB
:10088C00A1680B435360DCE7002018E0002016E061
:10089C00012B16D00E4B5B6803F48031226A914217
:1008AC0011D103F47013626A93420ED1002006E05A
:1008BC0001207047012002E0012000E0002002B07E
:1008CC0070BD0120FBE70120F9E70120F7E700BF2D
:1008DC0000100240000042420F4B5B6803F00C0218
:1008EC00082A01D00D487047C3F383420C49885C39
:1008FC0013F4803F0BD0084B5B68C3F34043094AA9
:10090C00D35C064A02FB00F0B0FBF3F07047064BD9
:10091C0003FB00F0704700BF0010024000127A0089
:10092C00200E00081C0E000800093D00002800F0F5
:10093C00A08070B50D460446524B1B6803F00703AC
:10094C008B420BD24F4A136823F007030B431360FF
:10095C00136803F007038B4240F08D80236813F07B
:10096C00020F17D013F0040F04D0474A536843F416
:10097C00E0635360236813F0080F04D0424A5368B5
:10098C0043F460535360404A536823F0F003A1686A
:10099C000B435360236813F0010F31D06368012BB4
:1009AC0020D0022B25D0384A126812F0020F64D0E6
:1009BC0035494A6822F0030213434B60FFF768FD88
:1009CC000646314B5B6803F00C036268B3EB820F95
:1009DC0016D0FFF75DFD801B41F288339842F0D9A9
:1009EC00032045E0284A126812F4003FE0D10120B0
:1009FC003EE0254A126812F0007FD9D1012037E081
:100A0C00204B1B6803F00703AB420AD91D4A13683D
:100A1C0023F007032B431360136803F00703AB4267
:100A2C002DD1236813F0040F06D0174A536823F412
:100A3C00E063E1680B435360236813F0080F07D0A1
:100A4C00114A536823F46053216943EAC10353608C
:100A5C00FFF742FF0C4B5B68C3F303130B4AD35CE9
:100A6C00D8400B4B18600B4B1868FFF7CDFC0020DF
:100A7C0070BD012070470120FAE70120F8E7012042
:100A8C00F6E700BF0020024000100240300E0008C4
:100A9C00080000200400002070B582B00024A44699
:100AAC009EE07C4DAB4214D00CD8A5F58015AB4222
:100ABC000FD005F57025AB420BD0A5F58015AB42D8
:100ACC001FD106E0744DAB4203D005F58035AB4227
:100ADC0017D18B68A3B1012B0DD04261082410E013
:100AEC00CC680EE0CC6804340BE0CC68083408E029
:100AFC00CC680C3405E00261082402E0002400E01C
:100B0C000424BEF1FF0F37D806464FEA8C02336837
:100B1C000F25954023EA050304FA02F213433360D0
:100B2C004B6813F0805F59D05C4B9A6942F001021C
:100B3C009A619B6903F001030193019B4FEA9C02AC
:100B4C00951C574B53F825600CF00305AD000F2393
:100B5C00AB4026EA0306534B984214D003F580634E
:100B6C00984279D003F58063984277D003F580637F
:100B7C00984206D0042307E0061DACF1080292004F
:100B8C00C5E7032300E00023AB4033430232444D5E
:100B9C0045F822304B6813F4801F61D0424A9368A9
:100BAC0043EA0E0393604B6813F4001F5ED03E4A79
:100BBC00D36843EA0E03D3604B6813F4003F5BD059
:100BCC00394A536843EA0E0353604B6813F4803F71
:100BDC0058D0354A136843EA0E0313600CF1010C2C
:100BEC000B6833FA0CF253D0012202FA0CF203EA2E
:100BFC00020E32EA0303F1D14B68122B3FF651AFD0
:100C0C00122B3FF67EAF01A555F823F0DF0A000842
:100C1C00ED0A0008F70A0008090B00080F0B000882
:100C2C000F0B00080F0B00080F0B00080F0B000830
:100C3C000F0B00080F0B00080F0B00080F0B000820
:100C4C000F0B00080F0B00080F0B00080F0B000810
:100C5C00F10A0008FD0A0008012395E7022393E737
:100C6C00114A936823EA0E0393609CE70E4AD368FB
:100C7C0023EA0E03D3609FE70B4A536823EA0E0363
:100C8C005360A2E7084A136823EA0E031360A5E732
:100C9C0002B070BD000022100000311000100240A4
:100CAC000000014000080140000401400AB101614C
:100CBC007047090401617047C36801EA030221EA25
:100CCC00030141EA0241016170470000002808DB82
:100CDC000901C9B200F1604000F5614080F80013D1
:100CEC00704700F00F000901C9B2014B195470474D
:100CFC0014ED00E000B500F00700C0F1070CBCF1EA
:100D0C00040F28BF4FF0040C031D062B0FD9C31E74
:100D1C004FF0FF3E0EFA0CF021EA000199400EFA5A
:100D2C0003FE22EA0E0241EA02005DF804FB0023F6
:100D3C00EEE70000074AD36823F4E0631B041B0CA6
:100D4C00000200F4E060034343F0BF6343F400335C
:100D5C00D360704700ED00E010B50446054BD86831
:100D6C00C0F30220FFF7C6FF01462046FFF7AEFF97
:100D7C0010BD00BF00ED00E00138B0F1807F0BD258
:100D8C004FF0E0235861054AF02182F8231000202F
:100D9C00986107221A6170470120704700ED00E04E
:100DAC0008B5FFF791FA08BD70470000FFF7FCFF8C
:100DBC000B480C490C4A002302E0D458C4500433AD
:100DCC00C4188C42F9D3094A094C002301E0136082
:100DDC000432A242FBD3FFF725FAFFF7DCFA704787
:100DEC00000000200C000020480E00080C00002021
:100DFC0038000020FEE70000F8B500BFF8BC08BCC6
:100E0C009E467047F8B500BFF8BC08BC9E467047BC
:100E1C000102000002030405060708090A0B0C0D69
:100E2C000E0F10100000000000000000010203046F
:040E3C000607080994
:040E40007501000830
:040E44004D01000854
:0C0E4800010000001000000000127A0001
:0400000508000DB929
:00000001FF
