:020000040800F2
:1000000000500020353000086D1A00086F1A0008F3
:10001000711A0008731A0008751A00080000000021
:10002000000000000000000000000000771A000837
:10003000791A0008000000007B1A00087D1A0008E9
:100040007D3000087D3000087D3000087D300008DC
:100050007D3000087D3000087D3000087D300008CC
:100060007D3000087D3000087D3000087D300008BC
:100070007D3000087D3000087D3000087D300008AC
:100080007D3000087D3000087D3000087D3000089C
:100090007D3000087D3000087D3000087D3000088C
:1000A0007D3000087D3000087D3000087D3000087C
:1000B0007D3000087D3000087D3000087D3000086C
:1000C0007D3000087D3000087D3000087D3000085C
:1000D0007D3000087D3000087D3000087D3000084C
:1000E0007D3000087D3000087D30000800000000F1
:1000F0000000000000000000000000000000000000
:0C01000000000000000000005FF808F1A3
:10010C000348044B834202D0034B03B1184770479A
:10011C005C0000205C000020000000000548064B3D
:10012C001B1AD90F01EBA301491002D0034B03B1E9
:10013C00184770475C0000205C00002000000000A5
:10014C0010B5064C237843B9FFF7DAFF044B13B113
:10015C000448AFF300800123237010BD5C00002025
:10016C00000000008030000808B5044B1BB10449A6
:10017C000448AFF30080BDE80840CFE70000000062
:10018C0060000020803000080CB470B50C460025CF
:10019C006FF000469CB00A4A20AB059253F8042B32
:1001AC0002A9CDE901341B9504960796069400F03C
:1001BC008FF9029B1D701CB0BDE8704002B07047F7
:1001CC000802FFFF0EB470B504466FF00046002520
:1001DC009DB00B4A21AB0B49106853F8042B0591C9
:1001EC0002A9CDE90134049607961B95069400F0FC
:1001FC006FF9029B1D701DB0BDE8704003B07047D5
:10020C00000000200802FFFF830730B546D084466B
:10021C00841805E0634603F8011B9D0703D09C4638
:10022C00A445F7D130BD013A0244A2EB0C02032ADB
:10023C0029D9CCB204EB04240F2A04EB04442FD9A3
:10024C00A2F1100C2CF00F0C03F11005AC44C3E917
:10025C000044C3E9024410336345F8D112F00C0F8B
:10026C0002F00F0E18D01A462EF0030C9C44AEF17F
:10027C00040542F8044B6245FBD125F0030404331A
:10028C000EF003022344002ACCD0C9B21A4403F85E
:10029C00011B9342FBD130BD7246F4E70346C6E71F
:1002AC009646E0E7014B1868704700BF000000203D
:1002BC0070B50F4B0F4DAB42A3EB050607D00024D6
:1002CC00B61055F8043B01349847A642F9D802F011
:1002DC00D1FE094D094B5E1BAB424FEAA60606D078
:1002EC00002455F8043B01349847A642F9D870BD58
:1002FC003C3100083C3100083C310008403100081A
:10030C002DE9F0471D468F680C46AF4216460B6828
:10031C0036D8B1F90CC01CF4906F0ED13D4618467E
:10032C0031462A4600F0EAF90020A368DF1B236857
:10033C00A7602B442360BDE8F0874A69096902EB8A
:10034C0042025F1A02EBD2726B1C52103B44934276
:10035C0092BF914699461A461CF4806F804611D084
:10036C00114600F089FA824600B33A46216900F042
:10037C00D7FBA38923F4906343F08003A38105E0AA
:10038C002F46CCE700F056FB824658B10AEB070328
:10039C00A9EB0707A760C4F810A02F46C4F8149067
:1003AC002360BCE74046216900F0E6FA0C22A389E1
:1003BC004FF0FF3043F04003C8F80020A381BAE7A8
:1003CC002DE9F04F936883B092460190002B77D0C3
:1003DC004FF0000B17680C465D468B680A6848E0C6
:1003EC00B4F90CC01CF4906F2FD0D4E90403A2EB29
:1003FC00000803EB430202EBD27208F10101521028
:10040C002944914292BF914689460A461CF4806F5A
:10041C0039D01146019800F02FFA064600283DD03D
:10042C004246216900F07CFBA28922F4906242F0E2
:10043C008002A28106EB0800A9EB08022661A846FF
:10044C002E46A2602060C4F814903246594600F043
:10045C0055F9DAF80810A3682268A3EB08033244B4
:10046C00491BA3602260CAF8081049B3D7E900B54C
:10047C00083798461046002DF8D09D421E46AFD244
:10048C00A8462E46E1E70146019800F0D3FA06464D
:10049C000028CFD10198216900F06EFA0C21A389B4
:1004AC00019D43F0400329600022A3814FF0FF30EF
:1004BC000023CAF80820CAF8043003B0BDE8F08F56
:1004CC0000200023CAF8043003B0BDE8F08F00BF51
:1004DC002DE9F0471C468B890E461D0607469246B1
:1004EC009CB003D50B69002B00F0F080002343F285
:1004FC00200209939AF80030039401257A4CADF848
:10050C002920002B72D0D04603E018F8013F002BB5
:10051C0073D0252BF9D1B8EB0A0971D198F80020CA
:10052C00002A63D000234FF0FF3208F10108CDE917
:10053C000523049307938DF853301A9305E0C846AE
:10054C00001B05FA00F018430490C146052219F867
:10055C00011B204600F0A4FACA46049B0028EED1E9
:10056C00D80644BF20228DF85320190748BF2B22F0
:10057C0098F8001048BF8DF853202A294ED1039AC1
:10058C0011680432002903927CDB079198F8011062
:10059C002E295BD00322554800F082FA40B140224C
:1005AC005249049B401A824013430AF1010A0493F6
:1005BC001AF8011B06224E488DF8281000F070FA2C
:1005CC00002865D04B48002855D003A9009132462D
:1005DC003846494B04A9AFF30080421C06D0099B56
:1005EC00034409939AF80030002B8CD1B3895B0635
:1005FC0077D409981CB0BDE8F087B8EB0A09F5D0A0
:10060C004B46524631463846FFF77AFE0130EDD064
:10061C00099B98F800204B44099381E7A1F1300223
:10062C00092A88BFC246B3D8079B01E009F101092A
:10063C0099F8001003EB830302EB4303A1F13002A2
:10064C00092AF3D92E29CA460793A3D19AF8011087
:10065C002A2926D1039B0AF102001A680433002AC6
:10066C000393B8BF4FF0FF339AF8021005928246FD
:10067C00B8BF05938EE7039B073323F007030833BA
:10068C000393ACE7494243F00203079104937DE7DF
:10069C0003A9009132463846174B04A900F048FBD9
:1006AC009BE70023A1F13002092A0AF1010A059304
:1006BC003FF670AF1AF8011F03EB830302EB430301
:1006CC00A1F13002092AF5D9059363E7402100F026
:1006DC00D3F83060306110B14023736106E70C230E
:1006EC003B604FF0FF3085E7B8300008C0300008A1
:1006FC00C4300008000000000D0300088842F0B56B
:10070C0014D98B18834211D9032A00EB020166D845
:10071C0002F1FF3C4AB16FEA0C0C0A469C4413F8F8
:10072C00011D634502F8011DF9D1F0BD032A0FD854
:10073C00034602F1FF3C002AF7D00CF1010C013BFF
:10074C008C4411F8012B614503F8012FF9D1F0BD50
:10075C0041EA00039B073ED10F2A64D901F1100432
:10076C00A446A2F11003203123F00F03194400F129
:10077C00100E5CF8105C0CF1100C4EF8105C5CF870
:10078C001C5C0EF1100E4EF81C5C5CF8185C4EF8FC
:10079C00185C5CF8145C8C454EF8145CE9D1E118DB
:1007AC0012F00C0F034402F00F0E03F1100338D0BB
:1007BC008C462EF00305043D1A1F5E195CF8044BA1
:1007CC0042F8044FB242F9D10431043329442B448A
:1007DC000EF00302ADE7034602F1FF3CADE741EA40
:1007EC000304A4071F4602D002F1FF3C93E78C469A
:1007FC00A2F1040E2EF003068E1B4FEA9E0E6446E9
:10080C0053F8045DB4424CF8045DF8D1CEEB8E7312
:10081C0001EB830107EB83073B1F043902F0030252
:10082C0076E7724685E703469646C1E770B5114EEA
:10083C00054633680C46BBB12146284600F0C6FB82
:10084C00431C01460CD0C41C24F00304A04205D068
:10085C002846611A00F0BAFB013001D0204670BD69
:10086C004FF0FF34204670BD194600F0AFFB3060EE
:10087C00E2E700BFB40100202DE9F843CD1C25F0C0
:10088C00030508350C2D38BF0C25002D064618DB4A
:10089C00A94216D8DFF8DC8000F0FEF8D8F8042066
:1008AC00A2B1144603E0636822467BB11C46236860
:1008BC005B1BF8D40B2B1FD8A242636854D0536037
:1008CC000CE00C2333600020BDE8F8832946304649
:1008DC00FFF7ACFF431C044619D00560304600F00E
:1008EC00DDF804F10B00231D20F00700C21A1CBF19
:1008FC001B1AA350BDE8F8836119A242256014BFEE
:10090C005160C8F80410635163684B60E6E7D8F88F
:10091C0004701FB33C467F68002FFBD12368394617
:10092C00304604EB030900F051FB814516D12368D6
:10093C003046ED1A2946FFF779FF01300ED02368B7
:10094C00D8F804202B442360536883B1A34203D00E
:10095C001A465B689C42FBD10023B0E70C2330465F
:10096C00336000F09BF8AEE7C8F80430B6E7C8F87F
:10097C000470B3E7B4010020002950D038B551F809
:10098C00043C0C1F002BB8BFE418054600F084F89B
:10099C00274A13682BB1A3420CD9216860188342F3
:1009AC002CD0284663601460BDE8384000F076B85F
:1009BC00A3420FD81A465B68002BF9D11168501866
:1009CC00844217D02CD3636054602846BDE838406D
:1009DC0000F064B811685018A04214D020D82168D7
:1009EC0060188342EFD118685B680844C4E90003BF
:1009FC005460EAE723680B441360E6E718685B6809
:100A0C0008442060CDE720680144501883421160EF
:100A1C00DBD1D3E900040144C2E90014D5E77047E7
:100A2C000C2328462B60BDE8384000F037B800BFD7
:100A3C00B80100202DE9F041144641B30AB3064633
:100A4C000D4600F0BBFA8442074602D8B4EB500FB7
:100A5C0013D821463046FFF70FFF804650B1BC42F9
:100A6C002246294628BF3A4600F05AF82946304615
:100A7C00FFF782FF4046BDE8F081A8464046BDE83E
:100A8C00F081A046FFF778FF4046BDE8F0811146A3
:100A9C00BDE8F041FFF7F0BE704700BF704700BFE4
:100AAC0030B586468007CCB215D0F4460EEB020565
:100ABC0007E0634613F8011BA14206D0990705D045
:100ACC009C4665456046F4D1002030BD013A724425
:100ADC009E46A2EB0C02032A0CD8002AF4D07346D3
:100AEC00724401E09A42EFD0184613F8011BA14260
:100AFC00F8D130BD714604EB042505EB05458E4657
:100B0C0051F8043B6B40A3F1013020EA030313F0CE
:100B1C00803FE4D1043A032AF1D88E46DDE700BFCA
:100B2C00844641EA000313F0030349D1403A23D32E
:100B3C000B6803604B6843608B688360CB68C36051
:100B4C000B6903614B6943618B698361CB69C36139
:100B5C000B6A03624B6A43628B6A8362CB6AC36221
:100B6C000B6B03634B6B43638B6B8363CB6BC36309
:100B7C0040304031403ADBD230320BD30B6803604B
:100B8C004B6843608B688360CB68C3601030103156
:100B9C00103AF3D20C3205D351F8043B40F8043B25
:100BAC00043AF9D2043208D0D2071CBF11F8013B29
:100BBC0000F8013B01D30B8803806046704700BFEF
:100BCC00082A13D38B07B1D010F00303AED0C3F1B6
:100BDC000403D21ADB071CBF11F8013B00F8013BE0
:100BEC00A4D331F8023B20F8023B9FE7043AD9D357
:100BFC00013A11F8013B00F8013BF9D20B78037074
:100C0C004B7843708B788370604670472DE9F84FB2
:100C1C0092461F460A698B680C469A42B8BF1A4620
:100C2C00CAF8002091F843300646DDF8289013B13D
:100C3C000132CAF80020226891065CD5DAF800303F
:100C4C000233CAF80030226812F0060F11461DD18B
:100C5C00E1689942D8BF114618DD4FF0000804F145
:100C6C00190B05E0E568DAF80030ED1A45450CDDA6
:100C7C0001235A4639463046C847013008F101086D
:100C8C00F0D14FF0FF30BDE8F88F216894F8433075
:100C9C00003B18BF01238A060AD53021E21882F8DE
:100CAC0043101A4694F845102244023382F844103B
:100CBC003946304604F14302C8470130E1D023687D
:100CCC00A26803F00603042B21691BD08A4224DDA1
:100CDC004FF00008521A904400251A3401E04545A3
:100CEC001BDA0123224639463046C847013005F14C
:100CFC000105F4D1C5E712F0060F11D0003B18BF67
:100D0C000123D5E7DAF80000E3688A42A3EB00037D
:100D1C0023EAE378DEDC002BDEDC0020BDE8F88F74
:100D2C00E168DAF800309942D8BF114695DCADE79E
:100D3C002DE9F04717460A7E84B00C4606469846C5
:100D4C000C9D01F1430C002A35D0A2F15803D9B205
:100D5C00202969D8202B67D8DFE813F0E50066005E
:100D6C006600660066006600660066006600660047
:100D7C006600AB00700066006600660066007000DE
:100D8C00660066006600660021008200C5006600F1
:100D9C006600B5006600820066006600EB002B68FA
:100DAC002268181D6169286010061B6802D452065F
:100DBC0000F1DF8019600023E14623613B462146A8
:100DCC003046CDF8008003AAFFF720FF013020D079
:100DDC004A46394630462369C047013019D023684A
:100DEC00E0689B07DDF80C9018D5484516DD00250A
:100DFC0004F1190A04E0E068A0EB0903AB420DDD35
:100E0C000123524639463046C047013005F10105F1
:100E1C00F1D14FF0FF3004B0BDE8F0874845B8BFC2
:100E2C00484604B0BDE8F087012084F8422004F164
:100E3C0042090023206184F84330BFE72A68236805
:100E4C00111D1806296002D4590600F1948012680D
:100E5C001146002AC0F293804FF00A0E554813E059
:100E6C0020682B6810F0800F53F8041B02D1400649
:100E7C0048BF89B26F2A2B6000F090804FF00A0EA9
:100E8C004C48002384F843306268002AA26052DB8D
:100E9C00236823F00403236000294CD1002A40F07E
:100EAC008380E146BEF1080F56D0ACEB09032361F9
:100EBC0084E72A680120116804322A6004F142098F
:100ECC0084F84210B5E72B6800211A1D2A60D3F86C
:100EDC00009062684846FFF7E3FD002862D0A0EB63
:100EEC0009006060A5E7236843F0200323607822A3
:100EFC00314884F845202A6813F0800F52F8041BFF
:100F0C0003D113F0400F18BF89B22A60DA0744BF2F
:100F1C0043F02003236019B9236823F020032360D6
:100F2C004FF0100EADE75823224884F84530236863
:100F3C00E1E72368DBE77546E146B1FBF5F30A46CA
:100F4C0005FB131A194610F80A30AA4209F8013D9C
:100F5C00F3D2BEF1080FA8D12368DD07A5D56268CE
:100F6C0023699A42A1DC302309F1FF3989F800305A
:100F7C009BE719801FE7B2F900100A4669E72D229A
:100F8C0084F843206268002AA26002DB23F0040389
:100F9C0023600A250748AE464942CDE74FF0080EBC
:100FAC0004486EE7606844E7037804F1420984F86A
:100FBC00423077E7CC300008E030000851F8043CB0
:100FCC00181F002BBCBF0B58C0187047002238B537
:100FDC00064D044608462A6002F002F8431C00D075
:100FEC0038BD2B68002BFBD0236038BDBC01002022
:100FFC0081F0004102E000BF83F0004330B54FEABE
:10100C0041044FEA430594EA050F08BF90EA020F2A
:10101C001FBF54EA000C55EA020C7FEA645C7FEABD
:10102C00655C00F0E2804FEA5454D4EB5555B8BFE0
:10103C006D420CDD2C4480EA020281EA030382EA51
:10104C00000083EA010180EA020281EA0303362DE3
:10105C0088BF30BD11F0004F4FEA01314FF4801CB6
:10106C004CEA113102D0404261EB410113F0004FC8
:10107C004FEA03334CEA133302D0524263EB43037F
:10108C0094EA050F00F0A780A4F10104D5F1200E1D
:10109C000DDB02FA0EFC22FA05F2801841F1000178
:1010AC0003FA0EF2801843FA05F359410EE0A5F14C
:1010BC0020050EF1200E012A03FA0EFC28BF4CF07D
:1010CC00020C43FA05F3C01851EBE37101F0004533
:1010DC0007D54FF0000EDCF1000C7EEB00006EEB40
:1010EC000101B1F5801F1BD3B1F5001F0CD34908CA
:1010FC005FEA30004FEA3C0C04F101044FEA445221
:10110C0012F5800F80F09A80BCF1004F08BF5FEAA7
:10111C00500C50F1000041EB045141EA050130BD87
:10112C005FEA4C0C404141EB0101013C28BFB1F599
:10113C00801FE9D291F0000F04BF01460020B1FAE4
:10114C0081F308BF2033A3F10B03B3F120020CDAB7
:10115C000C3208DD02F1140CC2F10C0201FA0CF095
:10116C0021FA02F10CE002F11402D8BFC2F1200CFA
:10117C0001FA02F120FA0CFCDCBF41EA0C019040B0
:10118C00E41AA2BF01EB0451294330BD6FEA0404F9
:10119C001F3C1CDA0C340EDC04F11404C4F12002E4
:1011AC0020FA04F001FA02F340EA030021FA04F3F6
:1011BC0045EA030130BDC4F10C04C4F1200220FA4D
:1011CC0002F001FA04F340EA0300294630BD21FA8B
:1011DC0004F0294630BD94F0000F83F4801306BF51
:1011EC0081F480110134013D4EE77FEA645C18BF45
:1011FC007FEA655C29D094EA050F08BF90EA020FDC
:10120C0005D054EA000C04BF1946104630BD91EAD3
:10121C00030F1EBF0021002030BD5FEA545C05D1D6
:10122C004000494128BF41F0004130BD14F5800415
:10123C003CBF01F5801130BD01F0004545F0FE4189
:10124C0041F470014FF0000030BD7FEA645C1ABFBE
:10125C00194610467FEA655C1CBF0B46024650EAF5
:10126C00013406BF52EA033591EA030F41F4002121
:10127C0030BD00BF90F0000F04BF0021704730B5A7
:10128C004FF4806404F132044FF000054FF000017C
:10129C0050E700BF90F0000F04BF0021704730B53D
:1012AC004FF4806404F1320410F0004548BF404212
:1012BC004FF000013EE700BF42004FEAE2014FEA67
:1012CC0031014FEA02701FBF12F07F4393F07F4F42
:1012DC0081F06051704732F07F4208BF704793F045
:1012EC007F4F04BF41F40021704730B54FF4607458
:1012FC0001F0004521F000411CE700BF50EA01025B
:10130C0008BF704730B54FF000050AE050EA010203
:10131C0008BF704730B511F0004502D5404261EB73
:10132C0041014FF4806404F132045FEA915C3FF4B4
:10133C00D8AE4FF003025FEADC0C18BF03325FEA51
:10134C00DC0C18BF033202EBDC02C2F1200300FA02
:10135C0003FC20FA02F001FA03FE40EA0E0021FA27
:10136C0002F11444BDE600BF80F0004002E000BF73
:10137C0081F0004142001FBF5FEA410392EA030F74
:10138C007FEA226C7FEA236C6AD04FEA1262D2EBBE
:10139C001363C1BFD218414048404140B8BF5B42C3
:1013AC00192B88BF704710F0004F40F4000020F05C
:1013BC007F4018BF404211F0004F41F4000121F072
:1013CC007F4118BF494292EA030F3FD0A2F10102BC
:1013DC0041FA03FC10EB0C00C3F1200301FA03F1FA
:1013EC0000F0004302D5494260EB4000B0F5000F1D
:1013FC0013D3B0F1807F06D340084FEA310102F1DC
:10140C000102FE2A51D2B1F1004F40EBC25008BF8D
:10141C0020F0010040EA03007047490040EB000057
:10142C00013A28BFB0F5000FEDD2B0FA80FCACF158
:10143C00080CB2EB0C0200FA0CF0AABF00EBC25085
:10144C0052421843BCBFD0401843704792F0000F73
:10145C0081F4000106BF80F400000132013BB5E7C6
:10146C004FEA41037FEA226C18BF7FEA236C21D03C
:10147C0092EA030F04D092F0000F08BF08467047A1
:10148C0090EA010F1CBF0020704712F07F4F04D16F
:10149C00400028BF40F00040704712F100723CBF82
:1014AC0000F50000704700F0004343F0FE4040F4AC
:1014BC00000070477FEA226216BF08467FEA23636A
:1014CC000146420206BF5FEA412390EA010F40F455
:1014DC00800070474FF0000304E000BF10F00043A1
:1014EC0048BF40425FEA000C08BF704743F0964388
:1014FC0001464FF000001CE050EA010208BF7047A3
:10150C004FF000030AE000BF50EA010208BF704729
:10151C0011F0004302D5404261EB41015FEA010C3E
:10152C0002BF84460146002043F0B64308BFA3F136
:10153C008053A3F50003BCFA8CF2083AA3EBC25318
:10154C0010DB01FA02FC634400FA02FCC2F1200237
:10155C00BCF1004F20FA02F243EB020008BF20F06E
:10156C000100704702F1200201FA02FCC2F12002D4
:10157C0050EA4C0021FA02F243EB020008BF20EAC9
:10158C00DC7070474FF0FF0C1CEAD0521EBF1CEAF7
:10159C00D15392EA0C0F93EA0C0F6FD01A4480EAE5
:1015AC00010C400218BF5FEA41211ED04FF00063CE
:1015BC0043EA501043EA5111A0FB01310CF00040FA
:1015CC00B1F5000F3EBF490041EAD3715B0040EA20
:1015DC00010062F17F02FD2A1DD8B3F1004F40EBF0
:1015EC00C25008BF20F00100704790F0000F0CF0C3
:1015FC00004C08BF49024CEA502040EA51207F3A87
:10160C00C2BFD2F1FF0340EAC250704740F4000061
:10161C004FF00003013A5DDC12F1190FDCBF00F052
:10162C0000407047C2F10002410021FA02F1C2F100
:10163C00200200FA02FC5FEA310040F1000053EA9C
:10164C004C0308BF20EADC70704792F0000F00F0EA
:10165C00004C02BF400010F4000F013AF9D040EAF0
:10166C000C0093F0000F01F0004C02BF490011F484
:10167C00000F013BF9D041EA0C018FE70CEAD15382
:10168C0092EA0C0F18BF93EA0C0F0AD030F0004C02
:10169C0018BF31F0004CD8D180EA010000F00040B6
:1016AC00704790F0000F17BF90F0004F084691F074
:1016BC00000F91F0004F14D092EA0C0F01D14202AE
:1016CC000FD193EA0C0F03D14B0218BF084608D177
:1016DC0080EA010000F0004040F0FE4040F40000C1
:1016EC00704740F0FE4040F4400070474FF0FF0C54
:1016FC001CEAD0521EBF1CEAD15392EA0C0F93EA9B
:10170C000C0F69D0A2EB030280EA010C49024FEAEC
:10171C00402037D04FF0805343EA111143EA1013A5
:10172C000CF000408B4238BF5B0042F17D024FF45D
:10173C00000C8B4224BF5B1A40EA0C00B3EB510F38
:10174C0024BFA3EB510340EA5C00B3EB910F24BF21
:10175C00A3EB910340EA9C00B3EBD10F24BFA3EBA6
:10176C00D10340EADC001B0118BF5FEA1C1CE0D16E
:10177C00FD2A3FF650AF8B4240EBC25008BF20F021
:10178C00010070470CF0004C4CEA50207F32C2BF75
:10179C00D2F1FF0340EAC250704740F400004FF012
:1017AC000003013A37E792F0000F00F0004C02BF43
:1017BC00400010F4000F013AF9D040EA0C0093F00D
:1017CC00000F01F0004C02BF490011F4000F013B67
:1017DC00F9D041EA0C0195E70CEAD15392EA0C0FCF
:1017EC0008D142027FF47DAF93EA0C0F7FF470AF07
:1017FC00084676E793EA0C0F04D14B023FF44CAF4A
:10180C0008466EE730F0004C18BF31F0004CCAD1DE
:10181C0030F000427FF45CAF31F000437FF43CAF1A
:10182C005FE700BF70B586B002AD0024029403944C
:10183C0004940594134B9A6942F004029A619A69D4
:10184C0002F004020092009A9A6942F010029A6126
:10185C009B6903F010030193019B0B4E22464FF43E
:10186C000051304601F0F0F94FF40053029301237C
:10187C0003930494022305932946304601F0DAF8C9
:10188C0006B070BD001002400010014072B6FEE7B9
:10189C0000B585B000230193029303930F48104ABF
:1018AC0002608360037303754FF46022C26143606E
:1018BC000123036100F0BAFB60B901230193029389
:1018CC000023039301A9054800F02CFA20B905B0B8
:1018DC005DF804FBFFF7DAFFFFF7D8FF5402002096
:1018EC000024014008B50A480A4B03604FF4165314
:1018FC00436000238360C36003610C2242618361F7
:10190C00C36101F0D6FA00B908BDFFF7BFFF00BFF5
:10191C000C0200200038014010B594B00AAC28220B
:10192C0000212046FEF770FC0023059306930793D5
:10193C0008930993019302930393049302230A934C
:10194C0001220E9210220F9211934FF460131393F5
:10195C00204600F069FCC0B90F23059302210691C3
:10196C00002307934FF480620892099305A800F0B6
:10197C008DFE60B9022301934FF40043039301A839
:10198C0000F060FF28B914B010BDFFF77FFFFFF720
:10199C007DFFFFF77BFF000030B583B000F00AFC41
:1019AC00FFF7BAFFFFF73EFFFFF772FFFFF79AFF53
:1019BC0020E0214800F0BEFB204B1D682846FFF7B5
:1019CC0089FD1F49FFF7DEFD1E49FFF78FFE1E4BF9
:1019DC0018601E4CFFF770FCCDE900012A461C492B
:1019EC002046FEF7EFFB4FF0FF3382B22146194839
:1019FC0001F08FFA00F0FCFB174B1B68C01AB0F516
:101A0C007A7FF7D300F0F4FB134B18604FF40051BE
:101A1C00124801F01FF9084C204600F067FA0A2121
:101A2C00204600F0B9F80028C3D1204600F076F922
:101A3C00024B1860BDE700BF5402002008020020D2
:101A4C003333534000F07F4504020020C4010020D2
:101A5C00983000080C020020C0010020001001404A
:101A6C00FEE7FEE7FEE7FEE7FEE7704770477047CC
:101A7C0008B500F0B1FB08BD82B00E4B9A6942F07C
:101A8C0001029A619A6902F001020092009ADA69E5
:101A9C0042F08052DA61DB6903F080530193019BC1
:101AAC00054A536823F0E06343F08063536002B04F
:101ABC00704700BF001002400000014000B587B025
:101ACC00002302930393049305930268114B9A42EB
:101ADC0002D007B05DF804FB03F56C439A6942F43D
:101AEC0000729A619A6902F400720092009A9A69E3
:101AFC0042F004029A619B6903F004030193019B79
:101B0C00022302930323039302A9034800F092FFDC
:101B1C00DFE700BF002401400008014030B587B06A
:101B2C00002302930393049305930268184B9A4283
:101B3C0001D007B030BD03F558439A6942F4804296
:101B4C009A619A6902F480420092009A9A6942F072
:101B5C0004029A619B6903F004030193019B4FF407
:101B6C0000730293022303930323059302AD094CE4
:101B7C002946204600F05EFF4FF480630293002359
:101B8C00039304932946204600F054FFD1E700BF8D
:101B9C000038014000080140F0B583B005460C4602
:101BAC000023019300F024FB2B689A6812F4807FC9
:101BBC0023D107465A6812F4807F03D1DB6A13F4F1
:101BCC00700F29D0504B1E68022000F0C7FEB6FBE8
:101BDC00F0F62B6819694D4A114236D1D96802F1D9
:101BEC005C42114231D11969494A114240D1DA683B
:101BFC00484B1A423ED0292341E0AB6A43F0200304
:101C0C00AB62002385F82430012003B0F0BD2B68B3
:101C1C001B6813F0020F0FD02B681B6813F0020F18
:101C2C004FD1B4F1FF3FF7D0002CF0D000F0E0FA28
:101C3C00C31BA342F0D9EAE7AB6A43F00403AB62DF
:101C4C00002385F824300320DFE71969304A11425C
:101C5C0004D1D96802F16E4211420DD019692E4A95
:101C6C000A405AB9DA682C4B13405BB1FC2306E0EE
:101C7C00292304E0142302E0542300E0FC2303FB9B
:101C8C0006F607E05423FAE7019BB34210D3019BFD
:101C9C0001330193019BB34213D2B4F1FF3FF6D051
:101CAC00002CF1D000F0A4FAC01BA042EFD9EBE756
:101CBC00AB6A43F00403AB62002385F824300320A5
:101CCC00A3E72B686FF012021A60AB6A43F400733F
:101CDC00AB622B689B6803F46023B3F5602F01D0D3
:101CEC00002092E7287B60B9AB6A23F48073AB6267
:101CFC00AB6A13F4805F88D1AB6A43F00103AB622B
:101D0C0083E7002081E700BF58000020244992247B
:101D1C009224491292244900499224000368D86CF9
:101D2C007047000030B482B00022019290F8242059
:101D3C00012A00F08F800346012280F824204A6893
:101D4C00062A2DD80468606B02EB8202053A4FF02C
:101D5C001F0C0CFA02FC20EA0C000D6805FA02F2CA
:101D6C00024362630A68092A38D91C68E06802EBEE
:101D7C0042021E3A4FF0070C0CFA02FC20EA0C004F
:101D8C008D6805FA02F20243E2600A68103A012AF1
:101D9C0034D90020002283F8242002B030BC7047D4
:101DAC000C2A0DD80568286B02EB8202233A1F24FB
:101DBC00944020EA04000C68944020432863D1E747
:101DCC000568E86A02EB8202413A1F24944020EA3B
:101DDC0004000C6894402043E862C3E71C68206947
:101DEC0002EB42024FF0070C0CFA02FC20EA0C004A
:101DFC008D6805FA02F202432261C6E71A6816489A
:101E0C00824205D09A6A42F020029A620120C1E710
:101E1C00906810F4000F1BD1906840F400009060A3
:101E2C000A68102A01D00020B4E70C4A12680C4949
:101E3C00A1FB0212920C02EB82025200019202E010
:101E4C00019A013A0192019A002AF9D10020A1E7E6
:101E5C0000209FE70220A0E700240140580000204A
:101E6C0083DE1B4330B583B00023019303689A686B
:101E7C0012F0010F33D104469A6842F001029A60C5
:101E8C00184B1B68184AA2FB03239B0C019302E01E
:101E9C00019B013B0193019B002BF9D100F0A8F9A8
:101EAC00054623689B6813F0010F16D100F0A0F9CA
:101EBC00431B022BF5D923689B6813F0010FF0D15B
:101ECC00A36A43F01003A362E36A43F00103E362E5
:101EDC00002384F82430012002E0002000E00020E0
:101EEC0003B030BD5800002083DE1B4390F8243033
:101EFC00012B68D010B50446012380F82430FFF77D
:101F0C00B1FF00285BD1A36A23F4407323F00103D3
:101F1C0043F48073A36223682C4A934227D0A26AAD
:101F2C0022F48012A2625A6812F4806F05D0A26A61
:101F3C0022F4405242F48052A262A26A12F4805FF0
:101F4C002BD0E26A22F00602E262002284F82420FE
:101F5C006FF002021A6023689A6802F46022B2F5EC
:101F6C00602F1DD09A6842F480129A602AE0A2F584
:101F7C008062526812F4702FD1D0A26A42F480129F
:101F8C00A262134A526812F4806FD6D0A26A22F46D
:101F9C00405242F48052A262CFE70022E262D4E7C0
:101FAC000A4A934204D09A6842F4A0029A6009E06B
:101FBC00A2F58062526812F4702FD3D1F3E700239C
:101FCC0084F8243010BD0220704700BF0028014067
:101FDC000024014038B503689A6812F0010F01D152
:101FEC00002038BD04469A6822F001029A6000F085
:101FFC00FFF8054623689B6813F0010F13D000F01F
:10200C00F7F8431B022BF5D923689B6813F0010FDB
:10201C00F0D0A36A43F01003A362E36A43F0010318
:10202C00E3620120DDE70020DBE7000000287BD025
:10203C0070B50446836A002B4DD02046FFF7CAFFCB
:10204C00A36A13F0100369D1002867D1A26A22F4A5
:10205C00885222F0020242F00202A2626268E16936
:10206C000A43217B42EA4102A568B5F5807F02D084
:10207C00012D36D01D46267D012E35D0266871687F
:10208C0021F46941294371602568AE6827493140C4
:10209C001143A960A168B1F5807F01D0012902D15B
:1020AC002369013B1B052568E96A21F470010B4388
:1020BC00EB62236899681E4B0B409A4225D0A36AA9
:1020CC0023F0120343F01003A362E36A43F001030D
:1020DC00E362012027E0C36280F82430FFF7EEFCB6
:1020EC00ABE74FF48075C6E731B9A169013945EA10
:1020FC00413141F40065C1E7A16A41F02001A162C0
:10210C00E16A41F00101E162B8E70023E362A36AEE
:10211C0023F0030343F00103A36204E0A36A43F03A
:10212C001003A362012070BD01207047FDF7E1FF91
:10213C00FE0E1FFF90F82430012B13D010B504466F
:10214C00012380F82430FFF745FF38B9A36A23F444
:10215C00885323F0010343F00103A362002384F8A6
:10216C00243010BD0220704710B504460E4B1A786F
:10217C004FF47A73B3FBF2F30C4A1068B0FBF3F034
:10218C0000F0C8FD68B90F2C01D901200AE000222B
:10219C0021464FF0FF3000F0ADFD054B1C600020D8
:1021AC0000E0012010BD00BF5000002058000020AE
:1021BC005400002008B5074A136843F0100313605D
:1021CC00032000F085FD0F20FFF7CEFFFFF754FC36
:1021DC00002008BD00200240034A1168034B1B7805
:1021EC000B441360704700BF840200205000002095
:1021FC00014B1868704700BF8402002082B0084B66
:10220C001B68084AA2FB03235B0A00FB03F3019340
:10221C0000BF019B5A1E0192002BF9D102B07047EE
:10222C0058000020D34D6210002800F0F18170B5E9
:10223C0082B00446036813F0010F2CD0994B5B68F5
:10224C0003F00C03042B1DD0964B5B6803F00C03BE
:10225C00082B12D06368B3F5803F41D0002B55D1C9
:10226C0003F1804303F504331A6822F480321A60B8
:10227C001A6822F480221A6037E08A4B5B6813F4E8
:10228C00803FE7D0874B1B6813F4003F03D0636893
:10229C00002B00F0BF81236813F0020F75D0814B27
:1022AC005B6813F00C0F5FD07E4B5B6803F00C0384
:1022BC00082B54D02369002B00F08A807A4B012222
:1022CC001A60FFF795FF0546764B1B6813F0020F5B
:1022DC0075D1FFF78DFF401B0228F5D903209EE135
:1022EC00704A136843F480331360636843B3FFF799
:1022FC007FFF05466B4B1B6813F4003FCBD1FFF7F8
:10230C0077FF401B6428F5D9032088E1B3F5A02F93
:10231C0009D0644B1A6822F480321A601A6822F4CD
:10232C0080221A60E1E703F18043A3F53C331A687D
:10233C0042F480221A601A6842F480321A60D4E7A0
:10234C00FFF756FF0546574B1B6813F4003FA2D00E
:10235C00FFF74EFF401B6428F5D903205FE1514B7A
:10236C005B6813F4803FA5D14E4B1B6813F0020F32
:10237C0003D02369012B40F04F814A4A136823F0A4
:10238C00F803616943EAC1031360236813F0080F73
:10239C0033D0A369002B5CD0434B0122C3F88024BB
:1023AC00FFF726FF05463F4B5B6A13F0020F21D166
:1023BC00FFF71EFF401B0228F5D903202FE1394AF5
:1023CC00136823F0F803616943EAC1031360DCE787
:1023DC00354B00221A60FFF70BFF0546314B1B688B
:1023EC0013F0020FD1D0FFF703FF401B0228F5D9E1
:1023FC00032014E10120FFF701FF236813F0040F01
:10240C0000F09680274BDB6913F0805F34D1254BAD
:10241C00DA6942F08052DA61DB6903F08053019390
:10242C00019B0125214B1B6813F4807F26D0E368A8
:10243C00012B3DD0002B53D103F1804303F5043322
:10244C001A6A22F001021A621A6A22F004021A6253
:10245C0033E0154B0022C3F88024FFF7C9FE054674
:10246C00104B5B6A13F0020FC7D0FFF7C1FE401B85
:10247C000228F5D90320D2E00025D3E70B4A1368D4
:10248C0043F480731360FFF7B3FE0646074B1B68DB
:10249C0013F4807FCBD1FFF7ABFE801B6428F5D9FA
:1024AC000320BCE0001002400000424200700040DB
:1024BC005F4A136A43F001031362E36833B3FFF717
:1024CC0097FE06465A4B1B6A13F0020F2FD1FFF7EB
:1024DC008FFE801B41F288339842F3D903209EE093
:1024EC00052B09D0524B1A6A22F001021A621A6AA1
:1024FC0022F004021A62E0E74D4B1A6A42F0040221
:10250C001A621A6A42F001021A62D6E7FFF770FEED
:10251C000646474B1B6A13F0020F08D0FFF768FE04
:10252C00801B41F288339842F3D9032077E0E5B958
:10253C00E369002B72D03E4A526802F00C02082A62
:10254C0056D0022B17D03B4B00221A66FFF750FED9
:10255C000446374B1B6813F0007F47D0FFF748FE4B
:10256C00001B0228F5D9032059E0314AD36923F026
:10257C008053D361DCE72F4B00221A66FFF738FE3D
:10258C0005462B4B1B6813F0007F06D0FFF730FE7F
:10259C00401B0228F5D9032041E0236AB3F5803FA4
:1025AC001AD023494B6823F47413226A606A0243DD
:1025BC0013434B601F4B01221A66FFF719FE0446AA
:1025CC001B4B1B6813F0007F0ED1FFF711FE001B95
:1025DC000228F5D9032022E0154A536823F400336E
:1025EC00A1680B435360DCE7002018E0002016E0E4
:1025FC00012B16D00E4B5B6803F48031226A91429A
:10260C0011D103F47013626A93420ED1002006E0DC
:10261C0001207047012002E0012000E0002002B000
:10262C0070BD0120FBE70120F9E70120F7E700BFAF
:10263C0000100240000042420F4B5B6803F00C029A
:10264C00082A01D00D487047C3F383420C49885CBB
:10265C0013F4803F0BD0084B5B68C3F34043094A2B
:10266C00D35C064A02FB00F0B0FBF3F07047064B5C
:10267C0003FB00F0704700BF0010024000127A000C
:10268C00F8300008F430000800093D00002800F084
:10269C00A08070B50D460446524B1B6803F007032F
:1026AC008B420BD24F4A136823F007030B43136082
:1026BC00136803F007038B4240F08D80236813F0FE
:1026CC00020F17D013F0040F04D0474A536843F499
:1026DC00E0635360236813F0080F04D0424A536838
:1026EC0043F460535360404A536823F0F003A168ED
:1026FC000B435360236813F0010F31D06368012B37
:10270C0020D0022B25D0384A126812F0020F64D068
:10271C0035494A6822F0030213434B60FFF768FD0A
:10272C000646314B5B6803F00C036268B3EB820F17
:10273C0016D0FFF75DFD801B41F288339842F0D92B
:10274C00032045E0284A126812F4003FE0D1012032
:10275C003EE0254A126812F0007FD9D1012037E003
:10276C00204B1B6803F00703AB420AD91D4A1368C0
:10277C0023F007032B431360136803F00703AB42EA
:10278C002DD1236813F0040F06D0174A536823F495
:10279C00E063E1680B435360236813F0080F07D024
:1027AC00114A536823F46053216943EAC10353600F
:1027BC00FFF742FF0C4B5B68C3F303130B4AD35C6C
:1027CC00D8400B4B18600B4B1868FFF7CDFC002062
:1027DC0070BD012070470120FAE70120F8E70120C5
:1027EC00F6E700BF00200240001002402431000830
:1027FC005800002054000020014B1868704700BF9F
:10280C005800002008B5FFF7F7FF044B5B68C3F3D3
:10281C000223034AD35CD84008BD00BF001002401D
:10282C001C31000808B5FFF7E7FF044B5B68C3F3E6
:10283C00C223034AD35CD84008BD00BF001002403D
:10284C001C31000870B582B00446036813F0010F08
:10285C0036D03F4BDB6913F0805F4AD13C4BDA69D1
:10286C0042F08052DA61DB6903F080530193019BE3
:10287C000125384B1B6813F4807F3CD0344B1B6A0A
:10288C0013F4407313D0626802F440729A420ED073
:10289C002F4A136A23F440702F490126C1F8406473
:1028AC000026C1F84064106213F0010F37D1284A9A
:1028BC00136A23F4407361680B431362002D3FD1FC
:1028CC00236813F0020F06D0214A536823F44043C7
:1028DC00A1680B435360236813F0100F35D01C4ACA
:1028EC00536823F48003E1680B435360002002B06B
:1028FC0070BD0025BDE7174A136843F4807313605D
:10290C00FFF776FC0646134B1B6813F4807FB5D19A
:10291C00FFF76EFC801B6428F5D90320E7E7FFF76F
:10292C0067FC06460A4B1B6A13F0020FBFD1FFF778
:10293C005FFC801B41F288339842F3D90320D6E721
:10294C00D36923F08053D361BAE70020CFE700BFEF
:10295C0000100240007000400000424208B50228FE
:10296C004ED0102803D0012828D0002052E02B4B49
:10297C005A68186810F080704CD0C2F38343284911
:10298C00C85C12F4803F15D0244B5B68C3F3404302
:10299C00244AD25C244BB3FBF2F303FB00F01F4B35
:1029AC005B6813F4800F35D14000204BA3FB003043
:1029BC0040082FE01E4B03FB00F0F0E7174B1B6A9F
:1029CC0040F202321A40B2F5817F24D003F44073F6
:1029DC00B3F5007F04D0B3F5407F09D0002019E097
:1029EC000E4A526A12F0020FF5D049F6404011E03F
:1029FC000A4B186810F400300CD04FF2244009E058
:102A0C00FFF710FF054B5B68C3F3813301335B00A9
:102A1C00B0FBF3F008BD4FF40040FBE700100240A0
:102A2C000C3100080831000800127A00ABAAAAAADF
:102A3C0000093D0070B582B00024A4469EE07C4D98
:102A4C00AB4214D00CD8A5F58015AB420FD005F5D0
:102A5C007025AB420BD0A5F58015AB421FD106E01B
:102A6C00744DAB4203D005F58035AB4217D18B6862
:102A7C00A3B1012B0DD04261082410E0CC680EE00C
:102A8C00CC6804340BE0CC68083408E0CC680C3417
:102A9C0005E00261082402E0002400E00424BEF1F9
:102AAC00FF0F37D806464FEA8C0233680F25954046
:102ABC0023EA050304FA02F2134333604B6813F064
:102ACC00805F59D05C4B9A6942F001029A619B6914
:102ADC0003F001030193019B4FEA9C02951C574B99
:102AEC0053F825600CF00305AD000F23AB4026EA2C
:102AFC000306534B984214D003F58063984279D067
:102B0C0003F58063984277D003F58063984206D032
:102B1C00042307E0061DACF108029200C5E703236D
:102B2C0000E00023AB4033430232444D45F82230E1
:102B3C004B6813F4801F61D0424A936843EA0E033A
:102B4C0093604B6813F4001F5ED03E4AD36843EA8F
:102B5C000E03D3604B6813F4003F5BD0394A5368C3
:102B6C0043EA0E0353604B6813F4803F58D0354A48
:102B7C00136843EA0E0313600CF1010C0B6833FA73
:102B8C000CF253D0012202FA0CF203EA020E32EAE2
:102B9C000303F1D14B68122B3FF651AF122B3FF6CA
:102BAC007EAF01A555F823F07B2A0008892A00087E
:102BBC00932A0008A52A0008AB2A0008AB2A0008B3
:102BCC00AB2A0008AB2A0008AB2A0008AB2A000885
:102BDC00AB2A0008AB2A0008AB2A0008AB2A000875
:102BEC00AB2A0008AB2A0008AB2A00088D2A000883
:102BFC00992A0008012395E7022393E7114A936869
:102C0C0023EA0E0393609CE70E4AD36823EA0E0373
:102C1C00D3609FE70B4A536823EA0E035360A2E785
:102C2C00084A136823EA0E031360A5E702B070BDCF
:102C3C000000221000003110001002400000014082
:102C4C0000080140000401400AB101617047090409
:102C5C0001617047C36801EA030221EA030141EAFA
:102C6C000241016170470000002808DB0901C9B26C
:102C7C0000F1604000F5614080F80013704700F0EF
:102C8C000F000901C9B2014B1954704714ED00E053
:102C9C0000B500F00700C0F1070CBCF1040F28BF11
:102CAC004FF0040C031D062B0FD9C31E4FF0FF3E33
:102CBC000EFA0CF021EA000199400EFA03FE22EA0A
:102CCC000E0241EA02005DF804FB0023EEE700006F
:102CDC00074AD36823F4E0631B041B0C000200F4C6
:102CEC00E060034343F0BF6343F40033D3607047A9
:102CFC0000ED00E010B50446054BD868C0F3022087
:102D0C00FFF7C6FF01462046FFF7AEFF10BD00BF20
:102D1C0000ED00E00138B0F1807F0BD24FF0E023E2
:102D2C005861054AF02182F823100020986107228F
:102D3C001A6170470120704700ED00E0026802F153
:102D4C000C0353E8003F23F490730C3242E800313B
:102D5C000029F3D1026802F1140353E8003F23F079
:102D6C000103143242E800310029F3D1036B012B2B
:102D7C0005D0202380F8423000230363704702689B
:102D8C0002F10C0353E8003F23F010030C3242E82D
:102D9C0000310029F3D1ECE710B504460268136941
:102DAC0023F44053C1680B431361836802691343D6
:102DBC0042691A430168CB6823F4B05323F00C0327
:102DCC001343CB600268536923F4407381690B434E
:102DDC0053610268134B9A4220D0FFF713FD024651
:102DEC0002EB820202EB820263689B00B2FBF3F2FD
:102DFC000D48A0FB02314909642303FB11231B017D
:102E0C003233A0FB03035B0903F0F00202EB011267
:102E1C0003F00F03216813448B6010BDFFF702FD14
:102E2C000246DDE7003801401F85EB512DE9F043E8
:102E3C0083B005460E4617469946DDF828802B6868
:102E4C001C6836EA04040CBF01240024BC4228D1BF
:102E5C00B8F1FF3FF3D0FFF7CBF9A0EB09004045E9
:102E6C0023D8B8F1000F22D02B68DA6812F0040FC7
:102E7C00E5D0802EE3D0402EE1D01A6812F0080F76
:102E8C00DDD0002401941A6801925B680193019BC8
:102E9C002846FFF753FF08236B6485F84040012058
:102EAC0000E0002003B0BDE8F0830320FAE7032024
:102EBC00F8E760B310B5044690F8413013B32423FF
:102ECC0084F841302268D36823F40053D360204641
:102EDC00FFF762FF2268136923F4904313612268A1
:102EEC00536923F02A0353612268D36843F40053D7
:102EFC00D36000206064202384F8413084F8423091
:102F0C00606310BD80F84030FEF708FED7E7012063
:102F1C0070472DE9F04182B01E4690F84130202BCD
:102F2C0056D104460D469046002955D00AB90120C9
:102F3C004FE000234364212380F84130FFF758F918
:102F4C000746A4F82480A4F82680A368B3F5805F14
:102F5C0002D04FF0000814E023692BB34FF00008A7
:102F6C000FE0202384F84130032032E038F8023B94
:102F7C002268C3F308035360E28C92B2013A92B216
:102F8C00E284E38C9BB293B100963B4600228021F5
:102F9C002046FFF74BFF0028E3D1002DE6D015F8B3
:102FAC00012B23685A60E7E7A8460025E9E700965D
:102FBC003B46002240212046FFF738FF18B920235A
:102FCC0084F8413005E0202384F84130032000E0F0
:102FDC00022002B0BDE8F0810120FAE77047000042
:102FEC0010B503460C4A0D490D48006840B10C4819
:102FFC0000680344521A934206D8094A136010BD64
:10300C000748084C0460F2E7FDF74CF90C23036009
:10301C004FF0FF30F3E700BF005000200004000029
:10302C008802002090020020FFF7D8FF0B480C49C3
:10303C000C4A002302E0D458C4500433C4188C4208
:10304C00F9D3094A094C002301E013600432A2426F
:10305C00FBD3FDF72DF9FEF79FFC70470000002015
:10306C005C000020443100085C0000208C02002031
:10307C00FEE70000F8B500BFF8BC08BC9E467047E0
:0C308C00F8B500BFF8BC08BC9E467047B9
:103098004144433A20256C75207C20566F6C74613E
:1030A80067653A20252E326620560D0A000000007A
:1030B800232D302B20000000686C4C0065666745A6
:1030C80046470000303132333435363738394142DB
:1030D800434445460000000030313233343536373A
:1030E800383961626364656600000000010200000F
:1030F80002030405060708090A0B0C0D0E0F101031
:103108000102000002030405060708090A0B0C0D5A
:103118000E0F101000000000010203040000000060
:0C31280000000000010203040607080973
:08313400F8D9FF7F0100000043
:04313C007501000811
:043140004D01000835
:10314400040000200000000078000020E0000020BF
:103154004801002000000000000000000000000002
:10316400000000000000000000000000000000005B
:10317400000000000000000000000000000000004B
:10318400000000000000000000000000000000003B
:0C319400010000001000000000127A0092
:04000005080030358A
:00000001FF
