:020000040800F2
:1000000000500020491A0008CD030008CF03000863
:10001000D1030008D3030008D50300080000000046
:10002000000000000000000000000000D7030008EE
:10003000D903000800000000DB030008DD0300080E
:10004000911A0008911A0008911A0008911A0008E4
:10005000911A0008911A0008911A0008911A0008D4
:10006000911A0008911A0008911A0008911A0008C4
:10007000911A0008911A0008911A0008911A0008B4
:10008000911A0008911A0008911A0008911A0008A4
:10009000911A0008911A0008911A0008911A000894
:1000A000911A0008911A0008911A0008911A000884
:1000B000E5030008911A0008911A0008911A000837
:1000C000911A0008911A0008911A0008911A000864
:1000D000911A0008F5030008911A0008911A000807
:1000E000911A0008911A0008911A000800000000F7
:1000F0000000000000000000000000000000000000
:0C01000000000000000000005FF808F1A3
:10010C000348044B834202D0034B03B1184770479A
:10011C000C0000200C000020000000000548064BDD
:10012C001B1AD90F01EBA301491002D0034B03B1E9
:10013C00184770470C0000200C0000200000000045
:10014C0010B5064C237843B9FFF7DAFF044B13B113
:10015C000448AFF300800123237010BD0C00002075
:10016C0000000000941A000808B5044B1BB10449A8
:10017C000448AFF30080BDE80840CFE70000000062
:10018C0010000020941A0008830730B546D084462E
:10019C00841805E0634603F8011B9D0703D09C46B9
:1001AC00A445F7D130BD013A0244A2EB0C02032A5C
:1001BC0029D9CCB204EB04240F2A04EB04442FD924
:1001CC00A2F1100C2CF00F0C03F11005AC44C3E998
:1001DC000044C3E9024410336345F8D112F00C0F0C
:1001EC0002F00F0E18D01A462EF0030C9C44AEF100
:1001FC00040542F8044B6245FBD125F0030404339B
:10020C000EF003022344002ACCD0C9B21A4403F8DE
:10021C00011B9342FBD130BD7246F4E70346C6E79F
:10022C009646E0E770B50F4B0F4DAB42A3EB0506BE
:10023C0007D00024B61055F8043B01349847A64269
:10024C00F9D801F021FC094D094B5E1BAB424FEA7A
:10025C00A60606D0002455F8043B01349847A64264
:10026C00F9D870BDD81A0008D81A0008D81A000896
:10027C00DC1A000882B0064B9A6942F004029A61BB
:10028C009B6903F004030193019B02B0704700BF0C
:10029C000010024072B6FEE700B58BB00023089345
:1002AC000993019302930393049305930693079385
:1002BC0017484FF08042026047224260836040F250
:1002CC00E732C2600361836100F0B2FAD0B9002357
:1002DC000893099308A90E4800F072FBA0B960239B
:1002EC000193002302930393059304220DEB020167
:1002FC00074800F0F7FA48B9054800F0BDF80BB014
:10030C005DF804FBFFF7C6FFFFF7C4FFFFF7C2FF62
:10031C007000002008B50A480A4B03604FF4E13323
:10032C00436000238360C36003610C2242618361DC
:10033C00C36101F083F900B908BDFFF7ABFF00BF43
:10034C00280000200038014010B590B006AC2822DF
:10035C0000212046FFF718FF00230193029303931B
:10036C00049305930223069301220A9210220B9206
:10037C000D934FF460130F93204600F0B9FB78B93E
:10038C000F23019302210291002303934FF4806207
:10039C000492059301A800F0DDFD18B910B010BD52
:1003AC00FFF778FFFFF776FF08B500F067FBFFF764
:1003BC00CBFFFFF75FFFFFF76FFFFFF7ABFFFEE72A
:1003CC00FEE7FEE7FEE7FEE7FEE770477047704783
:1003DC0008B500F065FB08BD08B5024800F037F918
:1003EC0008BD00BF7000002008B5024801F0E2F91A
:1003FC0008BD00BF2800002082B00E4B9A6942F065
:10040C0001029A619A6902F001020092009ADA697B
:10041C0042F08052DA61DB6903F080530193019B57
:10042C00054A536823F0E06343F08063536002B0E5
:10043C00704700BF00100240000001400368B3F198
:10044C00804F00D0704700B583B003F50433DA69F0
:10045C0042F00102DA61DB6903F001030193019BB5
:10046C00002211461C2001F00FF81C2001F01CF892
:10047C0003B05DF804FB000000B587B000230293C5
:10048C000393049305930368B3F1804F02D007B034
:10049C005DF804FB03F504339A6942F004029A6197
:1004AC009B6903F004030193019B022302930393C2
:1004BC00059302A9014800F029FEE8E70008014075
:1004CC0070B586B0002302930393049305930268DE
:1004DC001C4B9A4201D006B070BD03F558439A6983
:1004EC0042F480429A619A6902F480420092009A26
:1004FC009A6942F004029A619B6903F00403019328
:10050C00019B4FF40073029302230393032305937F
:10051C0002AE0D4D3146284600F0F8FD4FF48063D5
:10052C0002930024039404943146284600F0EEFD17
:10053C0022462146252000F0A7FF252000F0B4FF1D
:10054C00C9E700BF003801400008014030B4026A1E
:10055C00036A23F0010303624568836923F0730384
:10056C000C681C4322F002028B6813430B4A904226
:10057C0006D0456084614A684263036230BC7047B0
:10058C0023F00803CA681A4322F0040325F44075CB
:10059C004A692A438D691543EBE700BF002C0140E3
:1005AC0030B4036A026A22F4807202624468C2693F
:1005BC0022F073020D68154323F400738A6843EA32
:1005CC0002230D4A904206D04460C5614A68C2635A
:1005DC00036230BC704723F40063CA6843EA022309
:1005EC0023F4806324F440544A6944EA02148A696F
:1005FC0044EA0214E8E700BF002C014030B4036A5F
:10060C00026A22F4805202624468C26922F4E64211
:10061C000D6842EA052223F400538D6843EA053342
:10062C00074DA84206D04460C2614A680264036266
:10063C0030BC704724F480444D6944EA8514F2E7D9
:10064C00002C01407047704770477047704770B579
:10065C0004460368DE681D6915F0020F10D016F011
:10066C00020F0DD06FF002021A61012303770368A9
:10067C009B6913F0030F5ED0FFF7E6FF002323778F
:10068C0015F0040F12D016F0040F0FD023686FF082
:10069C0004021A610223237723689B6913F4407FB9
:1006AC004FD02046FFF7D0FF0023237715F0080F1B
:1006BC0012D016F0080F0FD023686FF008021A61E1
:1006CC00042323772368DB6913F0030F40D0204603
:1006DC00FFF7BAFF0023237715F0100F12D016F096
:1006EC00100F0FD023686FF010021A6108232377C4
:1006FC002368DB6913F4407F31D02046FFF7A4FF59
:10070C000023237715F0010F02D016F0010F2DD125
:10071C0015F0800F02D016F0800F2FD115F0400F7E
:10072C0002D016F0400F31D115F0200F02D016F088
:10073C00200F33D170BDFFF786FF2046FFF785FFF2
:10074C009CE72046FFF77FFF2046FFF77EFFABE7D5
:10075C002046FFF778FF2046FFF777FFBAE72046E1
:10076C00FFF771FF2046FFF770FFC9E723686FF0B2
:10077C0001021A612046FFF765FFC9E723686FF095
:10078C0080021A61204600F052F9C7E723686FF027
:10079C0040021A612046FFF759FFC5E723686FF046
:1007AC0020021A61204600F041F9C3E703681F4A92
:1007BC0090420AD0B0F1804F07D0A2F5943290420B
:1007CC0003D002F58062904203D123F070034A6893
:1007DC001343164A90420AD0B0F1804F07D0A2F5CD
:1007EC009432904203D002F58062904203D123F4FC
:1007FC004073CA68134323F080034A6913430360B0
:10080C008B68C3620B688362084B98420AD0012341
:10081C004361036913F0010F03D0036923F0010353
:10082C00036170470B690363F1E700BF002C0140C3
:10083C0040B310B5044690F83D30F3B1022384F870
:10084C003D30214651F8040BFFF7B0FF012384F82B
:10085C00463084F83E3084F83F3084F8403084F8D9
:10086C00413084F8423084F8433084F8443084F8C2
:10087C00453084F83D30002010BD80F83C30FFF747
:10088C00DDFDDBE70120704730B4036A026A22F019
:10089C00100202624468826922F4E6420D6842EA60
:1008AC00052223F020038D6843EA05130C4DA84262
:1008BC0006D0446082614A688263036230BC704730
:1008CC0023F08003CD6843EA051323F0400324F49E
:1008DC0040644D6944EA85048D6944EA8504E8E77F
:1008EC00002C014038B590F83C30012B66D0044602
:1008FC000D46012380F83C300C2A5AD8DFE802F070
:10090C00075959591B5959593059595944000068BC
:10091C00FFF71CFE2268936943F008039361226879
:10092C00936923F0040393612268936929690B434B
:10093C00936100203EE00068FFF7A6FF22689369F0
:10094C0043F4006393612268936923F48063936199
:10095C0022689369296943EA01239361002029E005
:10096C000068FFF71DFE2268D36943F00803D361CA
:10097C002268D36923F00403D3612268D3692969FF
:10098C000B43D361002015E00068FFF737FE2268A7
:10099C00D36943F40063D3612268D36923F4806381
:1009AC00D3612268D369296943EA0123D36100200A
:1009BC0000E00120002384F83C3038BD0220FCE725
:1009CC0090F83C20012A2CD010B40346012280F868
:1009DC003C20022280F83D2002685068946820F088
:1009EC00700C086840EA0C0050601A680E4882428D
:1009FC000AD0B2F1804F07D0A0F59430824203D0D8
:100A0C0000F58060824204D124F0800449682143BF
:100A1C009160012283F83D20002083F83C0010BC3B
:100A2C0070470220704700BF002C01407047704790
:100A3C0010B504460E4B1A784FF47A73B3FBF2F3ED
:100A4C000C4A1068B0FBF3F000F03CFD68B90F2CB9
:100A5C0001D901200AE0002221464FF0FF3000F0BE
:100A6C0013FD054B1C60002000E0012010BD00BFF1
:100A7C0000000020080000200400002008B5074AF0
:100A8C00136843F010031360032000F0EBFC0F20FD
:100A9C00FFF7CEFFFFF7B0FC002008BD002002409E
:100AAC00034A1168034B1B780B441360704700BF5B
:100ABC00B800002000000020014B1868704700BFF0
:100ACC00B800002082B0084B1B68084AA2FB032325
:100ADC005B0A00FB03F3019300BF019B5A1E0192BA
:100AEC00002BF9D102B0704708000020D34D6210E2
:100AFC00002800F0F18170B582B00446036813F051
:100B0C00010F2CD0994B5B6803F00C03042B1DD008
:100B1C00964B5B6803F00C03082B12D06368B3F59B
:100B2C00803F41D0002B55D103F1804303F50433B2
:100B3C001A6822F480321A601A6822F480221A6031
:100B4C0037E08A4B5B6813F4803FE7D0874B1B6818
:100B5C0013F4003F03D06368002B00F0BF812368BF
:100B6C0013F0020F75D0814B5B6813F00C0F5FD044
:100B7C007E4B5B6803F00C03082B54D02369002BCD
:100B8C0000F08A807A4B01221A60FFF795FF054628
:100B9C00764B1B6813F0020F75D1FFF78DFF401BCE
:100BAC000228F5D903209EE1704A136843F4803380
:100BBC001360636843B3FFF77FFF05466B4B1B68FD
:100BCC0013F4003FCBD1FFF777FF401B6428F5D916
:100BDC00032088E1B3F5A02F09D0644B1A6822F4E6
:100BEC0080321A601A6822F480221A60E1E703F15D
:100BFC008043A3F53C331A6842F480221A601A68C9
:100C0C0042F480321A60D4E7FFF756FF0546574B83
:100C1C001B6813F4003FA2D0FFF74EFF401B642863
:100C2C00F5D903205FE1514B5B6813F4803FA5D1EC
:100C3C004E4B1B6813F0020F03D02369012B40F0BD
:100C4C004F814A4A136823F0F803616943EAC103F0
:100C5C001360236813F0080F33D0A369002B5CD00A
:100C6C00434B0122C3F88024FFF726FF05463F4B78
:100C7C005B6A13F0020F21D1FFF71EFF401B022805
:100C8C00F5D903202FE1394A136823F0F803616981
:100C9C0043EAC1031360DCE7354B00221A60FFF70F
:100CAC000BFF0546314B1B6813F0020FD1D0FFF739
:100CBC0003FF401B0228F5D9032014E10120FFF7A4
:100CCC0001FF236813F0040F00F09680274BDB69BB
:100CDC0013F0805F34D1254BDA6942F08052DA612F
:100CEC00DB6903F080530193019B0125214B1B68A9
:100CFC0013F4807F26D0E368012B3DD0002B53D119
:100D0C0003F1804303F504331A6A22F001021A62DC
:100D1C001A6A22F004021A6233E0154B0022C3F85F
:100D2C008024FFF7C9FE0546104B5B6A13F0020FD7
:100D3C00C7D0FFF7C1FE401B0228F5D90320D2E033
:100D4C000025D3E70B4A136843F480731360FFF755
:100D5C00B3FE0646074B1B6813F4807FCBD1FFF71D
:100D6C00ABFE801B6428F5D90320BCE000100240C8
:100D7C0000004242007000405F4A136A43F00103D6
:100D8C001362E36833B3FFF797FE06465A4B1B6AB0
:100D9C0013F0020F2FD1FFF78FFE801B41F2883327
:100DAC009842F3D903209EE0052B09D0524B1A6AC6
:100DBC0022F001021A621A6A22F004021A62E0E7B7
:100DCC004D4B1A6A42F004021A621A6A42F001028E
:100DDC001A62D6E7FFF770FE0646474B1B6A13F004
:100DEC00020F08D0FFF768FE801B41F2883398424F
:100DFC00F3D9032077E0E5B9E369002B72D03E4AC2
:100E0C00526802F00C02082A56D0022B17D03B4B2A
:100E1C0000221A66FFF750FE0446374B1B6813F08E
:100E2C00007F47D0FFF748FE001B0228F5D90320AE
:100E3C0059E0314AD36923F08053D361DCE72F4B5F
:100E4C0000221A66FFF738FE05462B4B1B6813F081
:100E5C00007F06D0FFF730FE401B0228F5D9032097
:100E6C0041E0236AB3F5803F1AD023494B6823F441
:100E7C007413226A606A024313434B601F4B0122B6
:100E8C001A66FFF719FE04461B4B1B6813F0007F14
:100E9C000ED1FFF711FE001B0228F5D9032022E02A
:100EAC00154A536823F40033A1680B435360DCE705
:100EBC00002018E0002016E0012B16D00E4B5B68CA
:100ECC0003F48031226A914211D103F47013626AE7
:100EDC0093420ED1002006E001207047012002E071
:100EEC00012000E0002002B070BD0120FBE70120D2
:100EFC00F9E70120F7E700BF001002400000424272
:100F0C000F4B5B6803F00C02082A01D00D487047A8
:100F1C00C3F383420C49885C13F4803F0BD0084B1D
:100F2C005B68C3F34043094AD35C064A02FB00F0FA
:100F3C00B0FBF3F07047064B03FB00F0704700BFAB
:100F4C000010024000127A00B01A0008AC1A000817
:100F5C0000093D00002800F0A08070B50D46044645
:100F6C00524B1B6803F007038B420BD24F4A13689A
:100F7C0023F007030B431360136803F007038B4242
:100F8C0040F08D80236813F0020F17D013F0040F7C
:100F9C0004D0474A536843F4E0635360236813F06A
:100FAC00080F04D0424A536843F460535360404ADC
:100FBC00536823F0F003A1680B435360236813F0CC
:100FCC00010F31D06368012B20D0022B25D0384A79
:100FDC00126812F0020F64D035494A6822F00302FD
:100FEC0013434B60FFF768FD0646314B5B6803F01B
:100FFC000C036268B3EB820F16D0FFF75DFD801B0C
:10100C0041F288339842F0D9032045E0284A12680F
:10101C0012F4003FE0D101203EE0254A126812F0A4
:10102C00007FD9D1012037E0204B1B6803F0070368
:10103C00AB420AD91D4A136823F007032B431360F4
:10104C00136803F00703AB422DD1236813F0040F90
:10105C0006D0174A536823F4E063E1680B435360EE
:10106C00236813F0080F07D0114A536823F4605318
:10107C00216943EAC1035360FFF742FF0C4B5B68E5
:10108C00C3F303130B4AD35CD8400B4B18600B4BC8
:10109C001868FFF7CDFC002070BD012070470120BF
:1010AC00FAE70120F8E70120F6E700BF0020024034
:1010BC0000100240C81A000808000020040000209C
:1010CC00014B1868704700BF0800002008B5FFF7F7
:1010DC00F7FF044B5B68C3F30223034AD35CD8408D
:1010EC0008BD00BF00100240C01A000808B5FFF789
:1010FC00E7FF044B5B68C3F3C223034AD35CD840BD
:10110C0008BD00BF00100240C01A000870B582B0C4
:10111C000024A4469EE07C4DAB4214D00CD8A5F51F
:10112C008015AB420FD005F57025AB420BD0A5F561
:10113C008015AB421FD106E0744DAB4203D005F5D0
:10114C008035AB4217D18B68A3B1012B0DD0426116
:10115C00082410E0CC680EE0CC6804340BE0CC68BA
:10116C00083408E0CC680C3405E00261082402E085
:10117C00002400E00424BEF1FF0F37D806464FEAE6
:10118C008C0233680F25954023EA050304FA02F21A
:10119C00134333604B6813F0805F59D05C4B9A69F2
:1011AC0042F001029A619B6903F001030193019BD8
:1011BC004FEA9C02951C574B53F825600CF0030525
:1011CC00AD000F23AB4026EA0306534B984214D0D4
:1011DC0003F58063984279D003F58063984277D009
:1011EC0003F58063984206D0042307E0061DACF19A
:1011FC0008029200C5E7032300E00023AB40334311
:10120C000232444D45F822304B6813F4801F61D0F4
:10121C00424A936843EA0E0393604B6813F4001F31
:10122C005ED03E4AD36843EA0E03D3604B6813F496
:10123C00003F5BD0394A536843EA0E0353604B6856
:10124C0013F4803F58D0354A136843EA0E031360F9
:10125C000CF1010C0B6833FA0CF253D0012202FA98
:10126C000CF203EA020E32EA0303F1D14B68122BA3
:10127C003FF651AF122B3FF67EAF01A555F823F088
:10128C0053110008611100086B1100087D11000852
:10129C0083110008831100088311000883110008D2
:1012AC0083110008831100088311000883110008C2
:1012BC0083110008831100088311000883110008B2
:1012CC00831100086511000871110008012395E7CE
:1012DC00022393E7114A936823EA0E0393609CE779
:1012EC000E4AD36823EA0E03D3609FE70B4A536878
:1012FC0023EA0E035360A2E7084A136823EA0E039D
:10130C001360A5E702B070BD000022100000311080
:10131C0000100240000001400008014000040140A0
:10132C00034690F82120022A06D004228263002270
:10133C0080F820200120704701680A6822F00E0214
:10134C000A6001680A6822F001020A60026CC06B34
:10135C00012101FA02F2426083F82110002083F887
:10136C002000704708B590F82130022B03D00423DD
:10137C008363012008BD0268136823F00E03136019
:10138C000268136823F0010313600368194A93423F
:10139C0014D0143293421FD0143293421ED0143204
:1013AC0093421ED0143293421ED01432934202D078
:1013BC004FF0807203E04FF4801200E001220E4BDC
:1013CC005A60012380F82130002380F82030436BD1
:1013DC006BB198470020CDE71022F0E74FF48072F4
:1013EC00EDE74FF48052EAE74FF48032E7E7002054
:1013FC00C0E700BF0800024000000240002808DBE4
:10140C000901C9B200F1604000F5614080F8001399
:10141C00704700F00F000901C9B2014B1954704715
:10142C0014ED00E000B500F00700C0F1070CBCF1B2
:10143C00040F28BF4FF0040C031D062B0FD9C31E3D
:10144C004FF0FF3E0EFA0CF021EA000199400EFA23
:10145C0003FE22EA0E0241EA02005DF804FB0023BF
:10146C00EEE70000074AD36823F4E0631B041B0C6F
:10147C00000200F4E060034343F0BF6343F4003325
:10148C00D360704700ED00E010B50446054BD868FA
:10149C00C0F30220FFF7C6FF01462046FFF7AEFF60
:1014AC0010BD00BF00ED00E0002807DB00F01F02BC
:1014BC00400901239340024A42F82030704700BF94
:1014CC0000E100E00138B0F1807F0BD24FF0E02357
:1014DC005861054AF02182F82310002098610722F8
:1014EC001A6170470120704700ED00E0026802F1BC
:1014FC000C0353E8003F23F490730C3242E80031A4
:10150C000029F3D1026802F1140353E8003F23F0E1
:10151C000103143242E800310029F3D1036B012B93
:10152C0005D0202380F84230002303637047026803
:10153C0002F10C0353E8003F23F010030C3242E895
:10154C0000310029F3D1ECE790F84130212B01D088
:10155C00022070478368B3F5805F17D0036A5A1C6A
:10156C0002621A7803685A60C38C9BB2013B9BB22F
:10157C00C3844BB90268D36823F08003D36002683C
:10158C00D36843F04003D360002070470369002BFD
:10159C00E4D1036A1B880268C3F308035360036A2F
:1015AC0002330362E0E7000010B5044602681369D9
:1015BC0023F44053C1680B431361836802691343DE
:1015CC0042691A430168CB6823F4B05323F00C032F
:1015DC001343CB600268536923F4407381690B4356
:1015EC0053610268134B9A4220D0FFF76FFD0246FD
:1015FC0002EB820202EB820263689B00B2FBF3F205
:10160C000D48A0FB02314909642303FB11231B0184
:10161C003233A0FB03035B0903F0F00202EB01126F
:10162C0003F00F03216813448B6010BDFFF75EFDC0
:10163C000246DDE7003801401F85EB5160B310B561
:10164C00044690F8413013B3242384F841302268C7
:10165C00D36823F40053D3602046FFF7A5FF22681C
:10166C00136923F4904313612268536923F02A030E
:10167C0053612268D36843F40053D3600020606444
:10168C00202384F8413084F84230606310BD80F828
:10169C004030FEF715FFD7E701207047704708B5BB
:1016AC000168CA6822F04002CA60202280F84120FA
:1016BC00FFF7F4FF002008BD7047704708B5406A7B
:1016CC000023C385C384FFF7F8FF08BD704790F86B
:1016DC004230222B69D18368B3F5805F4FD0826A88
:1016EC00B3F5805F04D0002B56D10369002B53D186
:1016FC0003685B681370836A01338362C38D9BB28A
:10170C00013B9BB2C385002B51D100B583B002685D
:10171C00D36823F02003D3600268D36823F480736A
:10172C00D3600268536923F001035361202380F8CE
:10173C00423000234363036B012B33D1002303633B
:10174C00026802F10C0353E8003F23F010030C3243
:10175C0042E800310029F3D103681A6812F0100F27
:10176C0006D0002201921A6801925B680193019BDA
:10177C00818DFFF7ABFF002003B05DF804FB02691D
:10178C00002AACD1826A03685B68C3F30803138038
:10179C00836A02338362B1E703685B6803F07F03FB
:1017AC001370A8E7FFF788FFE5E7022070470020D9
:1017BC007047000010B582B0044602681368D06808
:1017CC00516913F00F0F09D113F0200F0CD010F04A
:1017DC00200F09D02046FFF77AFF16E011F0010127
:1017EC0015D110F4907F12D1216B012979D013F00F
:1017FC00800F03D010F0800F40F0138113F0400FD6
:10180C0003D010F0400F40F0108102B010BD13F067
:10181C00010F06D010F4807F03D0626C42F00102FD
:10182C00626413F0040F04D019B1626C42F002022E
:10183C00626413F0020F04D019B1626C42F004021E
:10184C00626413F0080F07D010F0200F00D119B10B
:10185C00626C42F008026264626C002AD5D013F00C
:10186C00200F02D010F0200F29D123685B6903F000
:10187C004003626C12F0080F00D163B32046FFF7EF
:10188C0035FE23685B6913F0400F20D0226802F10B
:10189C00140353E8003F23F04003143242E80031B4
:1018AC000029F3D1E36B73B1624A5A63E06BFFF723
:1018BC0059FD0028A9D0E06B436B9847A5E720465B
:1018CC00FFF705FFD1E72046FFF7F7FE9DE720461F
:1018DC00FFF7F3FE99E72046FFF7EFFE0023636462
:1018EC0093E713F0100F82D010F0100F3FF47FAF7E
:1018FC00002301931368019353680193019B53696F
:10190C0013F0400F51D0E26B13685B689BB2002B55
:10191C003FF47BAFA18D99427FF677AFE385936956
:10192C00202B37D0226802F10C0353E8003F23F43C
:10193C0080730C3242E800310029F3D1226802F1A5
:10194C00140353E8003F23F00103143242E8003142
:10195C000029F3D1226802F1140353E8003F23F06D
:10196C004003143242E800310029F3D1202384F8DB
:10197C00423000232363226802F10C0353E8003F3A
:10198C0023F010030C3242E800310029F3D1E06B54
:10199C00FFF7C6FC02236363A18DE38D9BB2C91ACA
:1019AC0089B22046FFF792FE2FE7A18DE38D9BB203
:1019BC00C91A89B2E38D9BB2002B3FF426AF0029E4
:1019CC003FF423AF226802F10C0353E8003F23F4E9
:1019DC0090730C3242E800300028F3D1226802F1F7
:1019EC00140353E8003F23F00103143242E80030A3
:1019FC000028F3D1202384F842300023236322688B
:101A0C0002F10C0353E8003F23F010030C3242E8C0
:101A1C0000300028F3D1022363632046FFF756FE03
:101A2C00F3E62046FFF790FDEFE62046FFF737FE82
:101A3C00EBE600BFC916000870470000FFF7FCFF7B
:101A4C000B480C490C4A002302E0D458C450043310
:101A5C00C4188C42F9D3094A094C002301E01360E5
:101A6C000432A242FBD3FEF7DDFBFEF79DFC704770
:101A7C00000000200C000020E01A00080C000020E0
:101A8C00BC000020FEE70000F8B500BFF8BC08BCA5
:101A9C009E467047F8B500BFF8BC08BC9E46704720
:101AAC000102000002030405060708090A0B0C0DCD
:101ABC000E0F1010000000000102030400000000D3
:0C1ACC00000000000102030406070809E6
:041AD800750100088C
:041ADC004D010008B0
:0C1AE000010000001000000000127A005D
:0400000508001A498C
:00000001FF
